:020000040800F2
:10000000F0100020C1010008A3110008C910000869
:10001000A1110008CD0200084915000800000000E9
:10002000000000000000000000000000A711000810
:100030005903000800000000A5110008A9110008DC
:10004000DB010008DB010008DB010008DB01000820
:10005000DB010008DB010008DB010008DB01000810
:10006000DB010008DB010008DB010008DB01000800
:10007000DB010008DB010008DB010008DB010008F0
:10008000DB010008DB010008DB010008DB010008E0
:10009000DB010008DB010008DB010008DB010008D0
:1000A000DB010008DB010008DB010008DB010008C0
:1000B000DB010008DB010008DB010008DB010008B0
:1000C000DB010008DB010008DB010008DB010008A0
:1000D000DB0100089D140008DB010008DB010008BB
:1000E000DB010008DB010008DB010008DB01000880
:1000F000DB010008DB010008DB010008DB01000870
:10010000DB010008DB010008DB010008DB0100085F
:10011000DB010008DB010008DB010008DB0100084F
:10012000DB010008DB010008D1020008DB01000848
:10013000DB010008DB010008DB010008DB0100082F
:10014000DB010008DB010008DB010008DB0100081F
:10015000DB010008DB010008DB010008DB0100080F
:10016000DB010008DB010008DB010008DB010008FF
:10017000DB010008DB010008DB01000800000000D3
:10018000DB010008DB010008DB010008DB010008DF
:10019000DB010008DB010008DB010008DB010008CF
:1001A0000000000000000000DB010008DFF80CD0B8
:1001B00000F07AF80048004789150008F010002088
:1001C0000648804706480047FEE7FEE7FEE7FEE7F1
:1001D000FEE7FEE7FEE7FEE7FEE7FEE73112000876
:1001E000AD0100082DE9F05F0546002092469B46D0
:1001F00088460646814640241BE02846414647463D
:10020000224600F041F853465A46C01A914110D395
:1002100011461846224600F028F82D1A67EB01080F
:100220004F4622460120002100F01FF817EB00097D
:100230004E41201EA4F10104DFDC484631462A4627
:100240004346BDE8F09FD2B201E000F8012B491E01
:10025000FBD270470022F6E710B513460A46044663
:100260001946FFF7F0FF204610BD202A04DB203A94
:1002700000FA02F1002070479140C2F1200320FAF9
:1002800003F3194390407047202A04DB203A21FAF7
:1002900002F00021704721FA02F3D040C2F120029F
:1002A0009140084319467047064C074D06E0E06848
:1002B00040F0010394E8070098471034AC42F6D3AD
:1002C000FFF778FFE016000800170008FEE70000BF
:1002D000014800F055B800008C0000200168182388
:1002E000CAB2103AB2FBF3F2054B6FF30901032ACD
:1002F0009B5CC36500D9091D8165084670470000F5
:10030000C016000810B5014600208B698A6A4FF0BC
:10031000C07453B1B3F5005F15D072B1012A0CD08F
:10032000022A0AD0032A09D104E01AB1012A06D010
:10033000022A03D1C96AC90100D5012010BDC96ACA
:10034000A142FAD010BD002AF7D0012AF2D0022A29
:10035000F3D0032AF3D010BD7047704790F83510E2
:10036000022903D08021416501207047052180F8D2
:1003700035100068016821F001010160002070471C
:100380002DE9F84304464FF00009CDF8009063488A
:100390004FF41651A56D0068B0FBF1F72E6894F884
:1003A0005C10082000FA01F131420FD021680A6880
:1003B00052070BD50A6822F004020A6094F85C1018
:1003C0008840A860606D40F00100606594F85C10A2
:1003D0004FF0010808FA01F0304208D0216849695D
:1003E000090604D5A860606D40F00200606594F8CD
:1003F0005C1004208840304208D0216809688907D1
:1004000004D5A860606D40F00400606594F85C104D
:1004100010208840304218D021680968090714D597
:10042000A86020680168490304D50068000308D566
:10043000A16C07E00168C90503D4016821F0080137
:100440000160216C09B12046884794F85C10202097
:100450008840304231D021680968C9062DD5A8608E
:1004600094F8350005282068016806D0490347D56F
:10047000006800031DD4616C1CE021F016010160CE
:100480002068416921F080014161206C08B9A06CAD
:1004900020B12068016821F00801016094F85C1027
:1004A0003F208840A86084F8349084F83580216D1E
:1004B0001FE0E16B09B120468847606D00282BD012
:1004C000606DC00714D0052084F8350020680168ED
:1004D00021F0010101600098401C0090B84203D84F
:1004E00020680068C007F6D184F8349084F835801D
:1004F000E16C002910D001B02046BDE8F043084768
:100500000168C905D5D4016821F01001016084F8A3
:10051000349084F83580CCE7BDE8F88310000020E3
:100520002DE9F041044600F067F906465CB100256C
:1005300084F83450022084F835002068016821F0E6
:10054000010101600DE00120BDE8F08100F054F9E7
:10055000801B052805D920206065032084F835001C
:10056000F2E720680068C007F0D1226811682048CF
:100570000140D4E901031843D4E903363343184357
:1005800063691843A3691843E3691843236A18434E
:100590000843616A042903D1D4E90B1319430843C2
:1005A000106020684069666A20F0070130460E43FB
:1005B000012704280CD1A06A0643E06A40B1204616
:1005C000FFF7A0FE20B14020606584F83570BAE7DF
:1005D000206846612046FFF781FE94F85C203F21A9
:1005E00091408160656584F835700020ACE70000BB
:1005F0003F8010F070B5044600F0FEF80546601C20
:1006000002D004480078044400F0F6F8401BA042F1
:10061000FAD370BD040000202DE9F84F00224FF0FE
:10062000010803254FF00F0E0B6808FA02F423406F
:10063000A3426ED14E68012E05D0022E03D0112E9A
:1006400001D0122E12D186684FEA420C05FA0CF73F
:10065000BE43CF6807FA0CF7374387604668A64366
:100660000C79C4F30014944034434460C6685700C6
:1006700005FA07FC8C6826EA0C06BC403443C460CB
:100680004C68022C01D0122C13D1D40800EB840446
:10069000A346D4F8209054074FEAD46A0EFA0AF61B
:1006A00029EA06090E6906FA0AF646EA0906CBF8AF
:1006B000206004680E7924EA0C0406F00306BE40AC
:1006C000264306604C68E4006FD53B4C266846F430
:1006D00080462660246822F0030604F480440094D7
:1006E000364C3444A446D4F808489607360F0EFA20
:1006F00006F7BC43324FB84201D100272EE0314FFC
:10070000B84201D1012729E02F4FB84202D1022778
:1007100024E04AE02D4FB84201D103271EE02C4FC0
:10072000B84201D1042719E02A4FB84201D1052768
:1007300014E0294FB84201D106270FE0274FB842F5
:1007400001D107270AE0264FB84201D1082705E06A
:10075000244FB84201D1092700E00A27B7402743B8
:10076000CCF80878204E34684F689C43FF0300D5CE
:100770001C4334601C4E361D34684F689C43BF03D5
:1007800000D51C433460184E083634684F689C43CB
:10079000FF0200D51C433460134E0C3634684F689A
:1007A0009C43BF0200D51C433460521C102AFFF446
:1007B0003BAFBDE8F88F00004438024000300140F4
:1007C000000002400004024000080240000C024009
:1007D000001002400014024000180240001C0240B9
:1007E0000020024000240240003C01400AB1816127
:1007F00070470904FBE7000001488068704700006B
:10080000040000200248816802781144816070472A
:10081000040000200B4810B5016841F4007101602C
:10082000016841F480610160016841F480710160F8
:10083000032000F06FF8002000F006F800F024F824
:10084000002010BD003C024070B50D4D04464FF431
:100850007A712878B1FBF0F00A490968B1FBF0F031
:1008600000F004FB48B9102C07D200222146501E8C
:1008700000F030F800206C6070BD012070BD0000F9
:1008800004000020100000200A4808B5016841F467
:1008900080410160006800F4804000900548001F1E
:1008A000016841F080510160006800F080500090C4
:1008B00008BD000044380240002809DB00F01F0298
:1008C000012191404009800000F1E020C0F80011B2
:1008D00070470000F0B40E4B1B680C46C3F30223B4
:1008E000C3F10705042D00D90425191D072901D2DC
:1008F000002300E0DB1E012606FA05F1491E214017
:1009000099409E40761E16403143F0BC00F01DBE5B
:100910000CED00E0064900F0070208684FF6FF03FF
:10092000184040EA0220034A104308607047000064
:100930000CED00E00000FA052DE9F0470E46050039
:1009400065D0DFF81481D8F80000F7B200F00F008E
:10095000B04207D288F80070D8F8000000F00F000D
:10096000B04254D128683D4C810712D5400703D5C9
:10097000206840F4E05020602878000703D5206804
:1009800040F4604020602068A96820F0F00008432F
:1009900020602878C0072DD03049686808390128C0
:1009A00012D0022813D0032811D009688907002922
:1009B0002DDA216821F0030101432160FFF71CFFBC
:1009C000814641F2883A0EE009688903EFE7096839
:1009D0008901ECE7FFF710FFA0EB0901514502D9AF
:1009E0000320BDE8F0872068696800F00C00B0EBD8
:1009F000810FEFD1D8F80010404601F00F01B1424D
:100A000007D90770006800F00F00B04201D0012044
:100A1000E7E72878400705D52068E96820F4E0502A
:100A2000084320602878000706D52068296920F44B
:100A3000604040EAC100206000F038F82168084AB0
:100A4000C1F30311515CC8400649086006480068BC
:100A5000FFF7FAFE0020C4E7003C024008380240DD
:100A6000C8160008100000200800002004480549AE
:100A700000680968044AC1F38221515CC84070478C
:100A80001000002008380240D81600080448054924
:100A900000680968044AC1F34231515CC84070479C
:100AA0001000002008380240D8160008154810B57C
:100AB000006810F00C02144813D01449042A0FD017
:100AC000082A0ED10F4C241F2268236802F03F022F
:100AD0005B0207D52068C0F38810A0FB010106E087
:100AE000084610BD2168C1F38811A1FB0001002355
:100AF000FFF778FB2168C1F30141491C4900B0FBB5
:100B0000F1F010BD083802400024F400001BB700CB
:100B10002DE9F84F040076D02078DFF838A3CE4DC9
:100B2000C00749D0DAF800105046C1F3810101290D
:100B300008D00068C0F3810002280AD1281D00688F
:100B4000400206D52868800336D560680028E2D0C8
:100B500032E06068B0F5803F10D0B0F5A02F286873
:100B600010D020F480302860286820F4802028608D
:100B70006068A0B1FFF740FE06460CE0286840F42C
:100B80008030F4E740F480202860F7E7FFF734FE78
:100B9000801B642873D828688003F7D50CE0FFF722
:100BA0002BFE064605E000BFFFF726FE801B6428EB
:100BB000F0D828688003F7D42078DFF8A082800777
:100BC0004FF000093ED5DAF80010504611F00C0F36
:100BD00009D00068C0F3810002280BD19D48001F96
:100BE0000068400206D42868800715D5E06801280F
:100BF00009D111E0E068B8B10120C8F80000FFF7A2
:100C0000FBFD064605E020E1FFF7F6FD801B02280C
:100C1000C0D828688007F7D52868216920F0F80037
:100C200040EAC10028600DE0C8F80090FFF7E4FD3D
:100C3000064604E0FFF7E0FD801B02281FD8286865
:100C40008007F7D42078000722D5824E8448616956
:100C50006C3671B101210160FFF7CEFD074604E05B
:100C6000FFF7CAFDC01B022809D830688007F7D5F6
:100C70000EE0C0F80090FFF7BFFD074605E082E0F8
:100C8000FFF7BAFDC01B02287DD830688007F7D473
:100C90002078400768D5DFF8BCB100270BF1380B8E
:100CA000DBF80000C0000BD4DBF8001041F08051ED
:100CB000CBF80010DBF80000012700F08050009016
:100CC000684E3068C00510D4306840F480703060E1
:100CD000FFF792FD009005E0FFF78EFD0099401AA6
:100CE000022850D83068C005F6D55A4EA06868363C
:100CF00001280FD00528306810D020F001003060A6
:100D0000306820F004003060A068B8B1FFF774FDCF
:100D100000900FE0306840F00100F4E740F004007C
:100D20003060F7E7FFF768FD0099411A41F288301B
:100D3000814266D830688007F4D50EE0FFF75CFD8D
:100D4000009007E0FFF758FD0099411A41F2883002
:100D5000814256D830688007F4D42FB1DBF80010F8
:100D600021F08051CBF80010A069D0B3DAF8002050
:100D70005146C2F38102022A4AD00228484607D0CF
:100D8000C8F8600000E03CE0FFF736FD04463BE0B9
:100D90004746C8F86000FFF72FFD064605E000BF94
:100DA000FFF72AFD801B02282BD828688001F7D482
:100DB000D4E907010843A16A2B4A490802EB014123
:100DC000626A41EA8211084394F82C1040EA0161FA
:100DD0002048001F016001203866FFF70DFD044622
:100DE00005E034E0FFF708FD001B022809D8286859
:100DF0008001F7D52BE000BFFFF7FEFC001B0228A7
:100E000002D90320BDE8F88F28688001F4D41EE0E1
:100E10000128F7D00868E26900F48001914214D1FA
:100E2000226A00F03F0191420FD147F6C071626A19
:100E30000140914209D1A26A00F44031914204D1AB
:100E4000E16A00F07060884201D00120DAE70020FA
:100E5000D8E700000838024000380240000047424E
:100E6000800E4742007000400000FFFF10B5401E9A
:100E7000B0F1807F01D3012010BD4FF0E02460610C
:100E80000F21601700F061FB0020A06107202061A6
:100E9000002010BD7047000070B50268044610685D
:100EA000D168536910F00F0F52D003F0010501F41F
:100EB00090762E435FD0C20705D0CA0503D5E26BFA
:100EC00042F00102E263420705D5DA0703D0E26B84
:100ED00042F00202E263820705D5DA0703D0E26B33
:100EE00042F00402E263020707D501F020022A4320
:100EF00003D0E26B42F00802E263E26B002A33D0D7
:100F0000800604D5880602D5204600F0B5F9206891
:100F10004069E16BC0F38010090700D428B3204674
:100F200000F09CF92068416949061AD5416921F011
:100F300040014161606BA0B11B490165606BFFF727
:100F40000DFA002810D0606B016DBDE870400847B5
:100F5000830610D58B060ED52046BDE8704000F004
:100F60008BB92046FFF796FF70BD2046FFF792FF32
:100F70000020E06370BD030606D50B0604D52046AD
:100F8000BDE8704000F058BA4006F3D54806F1D5E8
:100F9000D168204621F04001D160202184F8391029
:100FA00000F091F870BD00004D12000870B504000B
:100FB00004D094F83900002510B106E0012070BD7E
:100FC00084F83850204600F023F8242084F83900B3
:100FD0002068C16821F40051C160204600F098F9F2
:100FE0002068016921F4904101612068416921F084
:100FF0002A0141612068C16841F40051C160E56384
:10100000202084F8390084F83A00002070BD0000E8
:1010100070B586B0064614216846FFF71BF92449CF
:101020003068884241D123480025016841F0100111
:101030000160006800F0100005901E481438016837
:1010400041F0020101600068694600F0020005906D
:10105000C02000900220CDE9010503200390072065
:1010600004901548FFF7D8FA154C144820604FF04B
:101070000060C4E901054014C4E9035065614FF400
:101080004030A561C4E9075020466562FFF748FA81
:1010900008B1FFF762F97463002211462520A663A8
:1010A000FFF718FC2520FFF707FC06B070BD000015
:1010B00000100140443802400004024040640240F5
:1010C0008C00002070477047FEE70000094808B513
:1010D000016841F4800101600068002200F4800092
:1010E000009011463A20FFF7F5FBBDE808403A2092
:1010F000FFF7E2BB3038024030B587B014216846B4
:10110000FFF7A8F815480024016841F002010160CA
:10111000016801F002010591016841F08001016060
:10112000016801F080010591016841F04001016012
:1011300000680B4D00F04000059000227E212846FB
:10114000FFF754FB7E2000900120CDE901046946A1
:1011500028460394FFF760FA07B030BD30380240EC
:10116000001802400C4810B50A4901600B49416063
:10117000002181600C22C160C0E904128161C1615B
:10118000FFF714FF002803D0BDE81040FFF7E5B8D3
:1011900010BD0000001001404C000020A08601009E
:1011A000FEE7704770477047FFF72CBB30B593B030
:1011B00030216846FFF74EF814210CA8FFF74AF8D3
:1011C00019480025016841F080510160006800F075
:1011D000805011901548016841F440410160006859
:1011E000022400F44040119001200090000401907E
:1011F0008001CDE9064006200890A820CDE9090429
:1012000004200B906846FFF783FC0CA90F2081E8AF
:1012100031004FF4A0500F90E002109005210CA86F
:10122000FFF78AFB13B030BD403802400070004029
:101230000548016841F47001016003494FF0006006
:10124000803908607047000088ED00E010B5806BC1
:101250000021C185C184FFF71DFE10BD0168CA6869
:1012600022F49072CA6001684A6922F001024A6160
:10127000202180F83A10704710B590F83A102229D2
:1012800001D0022010BD8168B1F5805F11D00169E5
:10129000002901681FD0496801F07F03816A4A1C58
:1012A00082620B70C18D491E0904090CC18518D0DA
:1012B0002BE00269816A002A0268526805D0D2B226
:1012C0000A80816A491C8162ECE7C2F308020A8045
:1012D000816A891CF7E74A68816A4B1C83620A703D
:1012E000E0E70168CA6822F02002CA600168CA68A3
:1012F00022F48072CA6001684A6922F001024A61E0
:10130000202180F83A10FFF7DDFE002010BD00001C
:101310002DE9F041044600680169E26821F440517A
:10132000114301612169A068E269084361691143C1
:1013300008432168CA6849F20C639A430243CA60B1
:1013400020684169A26921F4407111434161E0695B
:10135000192764253226B0F5004F354A35492068F3
:101360004FF0000806D0884201D0904236D1FFF7F6
:101370008DFB35E0884201D0904202D1FFF786FB19
:1013800001E0FFF773FB61684A18A0FB070148EB17
:101390000803FEF727FF0146B0FBF5F00201B1FBA1
:1013A000F5F06FF01803584301EB800006EBC00026
:1013B000B0FBF5F000F0F80002EB4002B1FBF5F0F5
:1013C000584301EB800006EBC000B0FBF5F000F0E5
:1013D0000700216810448860BDE8F081FFF746FBF4
:1013E00061688B0F8A00A0FB0701FEF7FBFE014638
:1013F000B0FBF5F06FF01802504301EB800006EBF4
:101400000010B0FBF5F000F0F002B1FBF5F002EBDC
:101410000012B1FBF5F06FF01803584301EB8000A8
:1014200006EB0010B0FBF5F000F00F00D1E7000074
:10143000001401400010014090F83910212901D01A
:10144000022070478168B1F5805F016A0BD04A1CA9
:101450000262026809785160C18C491E0904090CB6
:10146000C1840ED017E009880268C1F308015160F9
:1014700001690029016A02D0491C0162ECE7891C5C
:10148000FBE70168CA6822F08002CA600068C16890
:1014900041F04001C160002070470000F8B52348CA
:1014A000FFF7FAFC214800680168890603D5016846
:1014B00040680090F8BD1E490968C906FAD5016860
:1014C00040681C4A0090106801681C4C0E031A49C1
:1014D0001B4D06684FF0240326F0010606601668CF
:1014E0007068C0F1240080B2088073600ED4116867
:1014F0000B6843F400230B6011680A6842F0010294
:101500000A601228D6D1206800680DE00D490B68EA
:1015100023F400230B6011680A6842F001020A609C
:101520001228C7D1206840682860F8BD4C00002010
:10153000004800408C000020020000201400002021
:101540003800002040640240FEE70907090E002829
:1015500004DB00F1E02080F80014704700F00F0079
:1015600000F1E02080F8141D704702E008C8121F47
:1015700008C1002AFAD170477047002001E001C17C
:10158000121F002AFBD17047FFF744F9FFF70EFE48
:10159000FFF7B2FDFFF79AFDFFF7E4FD4249086847
:1015A000426942F0400242610868C16841F010019E
:1015B000C1603E4801680A6822F001020A600168C1
:1015C0000A68D207F7D1026839499160026839493F
:1015D000D1600268123111610268242151600168F2
:1015E0000A6842F480220A600068016841F0010143
:1015F0000160304E304D314C24362878717900EA44
:10160000911003282DD0022832D001220221204639
:10161000FFF7ECF8012204212046FFF7E7F800224B
:1016200008212046FFF7E2F87079297801EA1010C6
:10163000032829D002284FF001024FF01001204664
:1016400029D0FFF7D3F8012220212046FFF7CEF85A
:10165000002240212046FFF7C9F80A20FEF7CAFF02
:10166000CBE7012202212046FFF7C0F8002205E067
:10167000002202212046FFF7B9F80122042120466A
:10168000FFF7B4F80122CBE7002210212046FFF734
:10169000ADF8012202E0FFF7A9F800222021204640
:1016A000FFF7A4F80122D4E74C0000208C000020B2
:1016B0000410014014000020000000200018024027
:1016C00000061016000610160000000000000000C2
:1016D00001020304060708090000000001020304D8
:1016E0000017000800000020140000006A15000820
:1016F0001417000814000020DC1000007A15000800
:1017000003000000010000001000000000000000C5
:041710000024F400BD
:04000005080001AD41
:00000001FF
